:100000000A128A11FC2FFF1B0D2883137F188317F8
:100010000008840A0319FF0A080000308A00040857
:10002000840A82070034013400340A340034643412
:100030000034E8340334103427342D342D34413463
:100040004434433420345234653461346434693484
:100050006E3467342D342D34003420342034203471
:100060002034203420340034253430343234753494
:0200700000345A
:1008F2008130831203139F008030831603139F00FD
:1009020008000730831603139F0083120313851414
:100912008316031389018801080083120313091047
:10092200891009110A128A11EF240A128A118312FC
:1009320003130915080001308312031388000910FC
:10094200891009110A128A11EF240A128A118312DC
:1009520003130915080002308312031388000910DB
:10096200891009110A128A11EF240A128A118312BC
:10097200031309150800C0308312031388000910FD
:10098200891009110A128A11EF240A128A1183129C
:10099200031309150800F20072088312031388007A
:1009A2000914891009110A128A11EF240A128A11F4
:1009B2008312031309150800F100F0013A307102A5
:1009C2000318E42CE52CED2C30307102031CEA2CC8
:1009D200EB2CED2CF001F00A700C0800F001F10193
:1009E2000130F0070318F10A0030F1077108803A6C
:1009F200FF0093307F02031D002D88307002031C1C
:100A0200032D042DF12C0800C530FF007F0883124E
:100A120003139F057008F20002300310F20DFF3E2F
:100A2200031D0E2D0310720DFF007F089F041F157A
:100A32001F191C2D1D2D192D1E08F40083160313DA
:100A42001E08F3007408F1007308F0000800F401B6
:100A5200F501701C2D2D2E2D342D7208F40703186C
:100A6200F50A7308F50701300310F20DF30DFF3E8E
:100A7200031D352D01300310F10CF00CFF3E031D58
:100A82003C2D70087104031D472D482D2A2D750831
:100A9200F1007408F0000800622D7408FF0073086A
:100AA20084000A128A1103200A128A110A128A1178
:100AB200CC240A128A110130F3070318F40A003019
:100AC200F407740883120313FF00730884000A12E8
:100AD2008A1103200A128A11003A031D712D722D08
:100AE2004E2D08000A128A1182240A128A1101303C
:100AF2008312031388000A128A118E240A128A11A1
:100B020038308312031388000A128A118E240A12C3
:100B12008A110E308312031388000A128A118E245E
:100B22000A128A1106308312031388000A128A11EC
:100B32008E240A128A1180308312031388000A124B
:100B42008A118E240A128A11080077087804031980
:100B5200AB2DAC2DDB2DFB01FB0ABA2D01300310AE
:100B6200F70DF80DFF3E031DB02D0130FF007F0889
:100B7200FB07F81FBD2DBE2DAF2D78087A02031D8D
:100B8200C42D77087902031CC72DC82DCE2D7708F6
:100B9200F9027808031CFA03FA0201300310F80C78
:100BA200F70CFF3E031DCF2D0130FB02031DDA2D92
:100BB200DB2DBE2D7A08F8007908F7000800F40151
:100BC200F501700871040319E72DE82D1F2EF601B7
:100BD200F60AF62D01300310F00DF10DFF3E031D54
:100BE200EC2D0130FF007F08F607F11FF92DFA2DD9
:100BF200EB2D01300310F40DF50DFF3E031DFB2D0F
:100C020071087302031D072E70087202031C0A2E5C
:100C12000B2E122E7008F2027108031CF303F3026A
:100C2200741401300310F10CF00CFF3E031D132E5F
:100C32000130F602031D1E2E1F2EFA2D7508F1003B
:100C42007408F00008000A128A1179240A128A1123
:100C52000A128A1173250A128A110A128A119C2415
:100C62000A128A110A128A11AC240A128A110B3052
:100C7200F3008030F4000A128A114D250A128A11FB
:100C82000030F000F1000A128A1105250A128A11B9
:100C9200710883120313B8007008B7000A128A1190
:100CA200BC240A128A11223083120313A0003808CE
:100CB200A2003708A1002F300A128A1178260A12E0
:100CC2008A112F30F3000030F4000A128A114D25E8
:100CD2000A128A111B30F3008030F4000A128A11C2
:100CE2004D250A128A11412E0A128A1100288312F6
:100CF2000313AB002130A600E72F25302E0603197F
:100D0200832E842E8E2E2B0884002E0883138000BF
:100D12000130FF007F08AB07E72FAC01AD01A7014F
:100D2200972E27150130FF007F08A00720088400B6
:100D32000A128A110D200A128A11A300A4012408A2
:100D4200003A0319A52EAA2E2308303A0319922E2F
:100D5200AA2E200884000A128A110D200A128A1172
:100D62000A128A11DD240A128A11031CB92EBA2E24
:100D7200002F83120313AC01AD010A30F0000030E2
:100D8200F100831203132D08F3002C08F2000A125B
:100D92008A1128250A128A11710883120313AD00E1
:100DA2007008AC00200884000A128A110D200A1271
:100DB2008A11D03EA300FF3003180030A40023089C
:100DC200AC070318AD0A2408AD070130FF007F0805
:100DD200A007200884000A128A110D200A128A1123
:100DE2000A128A11DD240A128A110318F92EFA2E28
:100DF200BE2E002FC030FF007F08A7041C2F013039
:100E020083120313A007FF30200784000A128A11FD
:100E12000D200A128A11AE00A300A4012408003A90
:100E22000319142FE72F2308003A0319F72F753AF5
:100E32000319FB2EE72F2608840083130008A8005D
:100E4200840A0008A9000230FF007F08A607AE014D
:100E5200AE0A2E08A3002307013E84000A128A115B
:100E62000D200A128A11A4000A128A110D200A12F8
:100E72008A11A50025082902031D412F24082802F2
:100E82000318442F452F462F502F0130FF007F08B3
:100E9200AE0705302E06031D4F2F502F2A2F2D0887
:100EA200803A803C031D572F2C082E0203185A2F1C
:100EB2005B2F672F831203132E08A300A4012308BC
:100EC200AC022408031CAD03AD026B2F8312031383
:100ED200AC01AD01271D6E2F6F2F8B2F2C082D0417
:100EE2000319742F752FA62F2B088400303083131B
:100EF20080000130FF007F08AB07FF30AC0703180A
:100F0200AD0AFF30AD072C082D04031D892F8A2F4F
:100F1200752FA62F2C082D040319902F912FA62F81
:100F22002B0884002030831380000130FF007F08EB
:100F3200AB07FF30AC070318AD0AFF30AD072C0832
:100F42002D04031DA52FA62F912F2E08AA00DE2FF8
:100F52000A30F7000030F8002A08A3002307013EF8
:100F620084000A128A110D200A128A11F0000A1254
:100F72008A110D200A128A11F1002908F3002808AB
:100F8200F2000A128A11E0250A128A117108FA0087
:100F92007008F9000A128A11A6250A128A11770826
:100FA200303E83120313AE002B0884002E088313F5
:100FB20080000130FF007F08AB07FF30FF007F0891
:100FC200AA072A0A031DE62FE72FA92F0130A0073F
:100FD200FF30200784000A128A110D200A128A119A
:100FE200AE002E08031DF62FF72F7E2E2B0884004D
:0E0FF20083138001080083010A128A11242E45
:02400E007A3FF7
:00000001FF
