:100000000A128A11FC2F00308A000408840A820731
:10001000003459346F347534723420344E346134C2
:060020006D34653400346C
:100D6E000730831603139F00831203138514831613
:100D7E0003138901880108008312031309108910D7
:100D8E0009110A128A1106270A128A1183120313F5
:100D9E000915080002308312031388000910891008
:100DAE0009110A128A1106270A128A1183120313D5
:100DBE0009150800F2007208831203138800091443
:100DCE00891009110A128A1106270A128A11831232
:100DDE000313091508000A128A113B270A128A11F9
:100DEE000A128A11D1260A128A1101300A128A11A8
:100DFE006E270A128A11022F0A128A110028F00198
:100E0E00F1010130F0070318F10A0030F107710803
:100E1E00803AFF0093307F02031D172F8830700237
:100E2E00031C1A2F1B2F082F0800F400F201F301E8
:100E3E002A2F0130F2070318F30A0030F3070130AE
:100E4E00FF007F08F407740884000A128A11032039
:100E5E000A128A11003A031D352F362F202F7308E0
:100E6E00F1007208F00008000A128A11B7260A1261
:100E7E008A1101308312031388000A128A11C326C5
:100E8E000A128A1138308312031388000A128A114B
:100E9E00C3260A128A110E308312031388000A1217
:100EAE008A11C3260A128A11063083120313880090
:100EBE000A128A11C3260A128A1180308312031372
:100ECE0088000A128A11C3260A128A110800831298
:100EDE000313A40024080A128A111C270A128A116D
:100EEE00710883120313A3007008A200A501A601C6
:100EFE00E52F0A128A11D1260A128A1183120313C0
:100F0E00A701A8018312031327082507F500280857
:100F1E000318280A2607F6007608803AF7002308F9
:100F2E00803A7702031D9D2F22087502031CA02F05
:100F3E00A12FA82F203083120313A0000030A10090
:100F4E00BB2F8312031325082407F5002708750706
:100F5E0084000A128A1103200A128A11F600F70180
:100F6E007608A0007708A10020080A128A11E1264F
:100F7E000A128A11013083120313A7070318A80A55
:100F8E000030A8072808803AFF0080307F02031D3A
:100F9E00D22F10302702031CD52FD62F892FC73002
:100FAE00F500D92FF50BD82FDC2FDD2F0130831252
:100FBE000313A5070318A60A0030A6072208103E41
:100FCE00F50023080318013E003EF6002608803A7D
:100FDE00F7007608803A7702031DF72F7508250271
:100FEE00031CFA2FFB2F802F080083010A128A118F
:020FFE00F22ED1
:02400E007A3FF7
:00000001FF
