:060000000A128A11FC2F18
:100E1A000730831603139F00831203138514831666
:100E2A00031389018801080083120313091089102A
:100E3A0009110A128A1158270A128A1183120313F6
:100E4A00091508000130831203138800091089105C
:100E5A0009110A128A1158270A128A1183120313D6
:100E6A00091508000230831203138800091089103B
:100E7A0009110A128A1158270A128A1183120313B6
:100E8A0009150800F2007208831203138800091476
:100E9A00891009110A128A1158270A128A11831213
:100EAA00031309150800F001F1010130F0070318D6
:100EBA00F10A0030F1077108803AFF0093307F028F
:100ECA00031D692F88307002031C6C2F6D2F5A2F57
:100EDA0008000A128A110D270A128A110130831298
:100EEA00031388000A128A1119270A128A11383044
:100EFA008312031388000A128A1119270A128A1107
:100F0A000E308312031388000A128A1119270A1253
:100F1A008A1106308312031388000A128A111927CC
:100F2A000A128A1180308312031388000A128A1166
:100F3A0019270A128A1108000A128A116E270A1240
:100F4A008A110A128A1127270A128A110A128A1189
:100F5A0037270A128A1148300A128A1147270A12B9
:100F6A008A1145300A128A1147270A128A114C300F
:100F7A000A128A1147270A128A114C300A128A1158
:100F8A0047270A128A114F300A128A1147270A1272
:100F9A008A1120300A128A1147270A128A115730F9
:100FAA000A128A1147270A128A114F300A128A1125
:100FBA0047270A128A114C300A128A1147270A1245
:100FCA008A1152300A128A1147270A128A114430AA
:100FDA000A128A1147270A128A1121300A128A1123
:100FEA0047270A128A11F82F0A128A110028830148
:060FFA000A128A11A12F6A
:02400E007A3FF7
:00000001FF
