:060000000A128A11FC2F18
:100F5600831603138801FF30831203138800C730FA
:100F6600831603138100F301F4017408803AFF002D
:100F760080307F02031DC12F08307302031CC42F6B
:100F8600C52FC62FB62F0130F000730ACC2F0310E1
:100F9600F00DFF3E031DCA2F7008FF3A831203139C
:100FA60088000630F2001330F100AD30F000F00B8F
:100FB600DA2FF10BDA2FF20BDA2FE12FFF30831243
:100FC600031388000630F2001330F100AD30F00054
:100FD600F00BEB2FF10BEB2FF20BEB2FF22F013077
:100FE600F3070318F40A0030F407B82F0A128A111F
:0A0FF600002883010A128A11AB2FB4
:02400E007A3FF7
:00000001FF
