:100000000A128A11FC2F00308A000408840A820731
:10001000003459346F347534723420344E346134C2
:100020006D346534203447346F3465347334203490
:1000300048346534723465342134003449344434EE
:100040003A34203431343234333434343534363481
:04005000373400340D
:100E54000730831603139F0083120313851483162C
:100E640003138901880108008312031309108910F0
:100E740009110A128A1175270A128A11831203139F
:100E84000915080002308312031388000910891021
:100E940009110A128A1175270A128A11831203137F
:100EA40009150800C0308312031388000910891043
:100EB40009110A128A1175270A128A11831203135F
:100EC40009150800F200720883120313880009143C
:100ED400891009110A128A1175270A128A118312BC
:100EE400031309150800F001F1010130F00703189C
:100EF400F10A0030F1077108803AFF0093307F0255
:100F0400031D862F88307002031C892F8A2F772FA8
:100F14000800F3009D2F730884000A128A1103202D
:100F24000A128A110A128A1164270A128A110130DC
:100F3400FF007F08F307730884000A128A11032054
:100F44000A128A11003A031DA82FA92F8D2F080019
:100F54000A128A11C9270A128A110A128A1144270D
:100F64000A128A1101300A128A118B270A128A1175
:100F74000A128A1154270A128A1116300A128A1187
:100F84008B270A128A11C52F0A128A1100280A1205
:100F94008A112A270A128A11013083120313880046
:100FA4000A128A1136270A128A113830831203135F
:100FB40088000A128A1136270A128A110E30831207
:100FC400031388000A128A1136270A128A1106307E
:100FD4008312031388000A128A1136270A128A110F
:100FE40080308312031388000A128A1136270A12EA
:0C0FF4008A11080083010A128A11AA2F3A
:02400E007A3FF7
:00000001FF
