:060000000A128A11FC2F18
:100EEA003A30831603138800033086008113F30116
:100EFA00FF30831203138800831203130618862F08
:100F0A00872F9B2F4130F100EE30F000F00B8B2F32
:100F1A00F10B8B2F0000831203130618952F962FBF
:100F2A00992F081088139B2F0814881786189E2F4C
:100F3A009F2FC92F7308031DA32FA42FC92F413038
:100F4A00F100EE30F000F00BA82FF10BA82F0000F3
:100F5A00831203138618B22FB32FC92F7308031DE8
:100F6A00B72FB82FC92F081308110630F200133013
:100F7A00F100AD30F000F00BC02FF10BC02FF20BD7
:100F8A00C02FC72FF301F30A831203138618CE2F3B
:100F9A00CF2F812F7303031DD32FD42F812F4130DD
:100FAA00F100EE30F000F00BD82FF10BD82F000033
:100FBA00831203138618E22FE32F812F7303031D75
:100FCA00E72FE82F812F081708150630F200133093
:100FDA00F100AD30F000F00BF02FF10BF02FF20B17
:100FEA00F02FF72FF301812F0A128A1100288301AB
:060FFA000A128A11752F96
:02400E007A3FF7
:00000001FF
